{
  "contractName": "Artist",
  "abi": [
    {
      "inputs": [
        {
          "internalType": "address",
          "name": "_owner",
          "type": "address"
        },
        {
          "internalType": "string",
          "name": "_artistName",
          "type": "string"
        },
        {
          "internalType": "string",
          "name": "_imageUrl",
          "type": "string"
        },
        {
          "internalType": "string",
          "name": "_descriptionUrl",
          "type": "string"
        },
        {
          "internalType": "string",
          "name": "_socialUrl",
          "type": "string"
        }
      ],
      "stateMutability": "nonpayable",
      "type": "constructor"
    },
    {
      "inputs": [],
      "name": "artistName",
      "outputs": [
        {
          "internalType": "string",
          "name": "",
          "type": "string"
        }
      ],
      "stateMutability": "view",
      "type": "function",
      "constant": true
    },
    {
      "inputs": [],
      "name": "contractVersion",
      "outputs": [
        {
          "internalType": "string",
          "name": "",
          "type": "string"
        }
      ],
      "stateMutability": "view",
      "type": "function",
      "constant": true
    },
    {
      "inputs": [],
      "name": "createdBy",
      "outputs": [
        {
          "internalType": "address",
          "name": "",
          "type": "address"
        }
      ],
      "stateMutability": "view",
      "type": "function",
      "constant": true
    },
    {
      "inputs": [],
      "name": "descriptionUrl",
      "outputs": [
        {
          "internalType": "string",
          "name": "",
          "type": "string"
        }
      ],
      "stateMutability": "view",
      "type": "function",
      "constant": true
    },
    {
      "inputs": [],
      "name": "followers",
      "outputs": [
        {
          "internalType": "uint256",
          "name": "",
          "type": "uint256"
        }
      ],
      "stateMutability": "view",
      "type": "function",
      "constant": true
    },
    {
      "inputs": [
        {
          "internalType": "address",
          "name": "",
          "type": "address"
        }
      ],
      "name": "following",
      "outputs": [
        {
          "internalType": "bool",
          "name": "",
          "type": "bool"
        }
      ],
      "stateMutability": "view",
      "type": "function",
      "constant": true
    },
    {
      "inputs": [],
      "name": "forwardingAddress",
      "outputs": [
        {
          "internalType": "address payable",
          "name": "",
          "type": "address"
        }
      ],
      "stateMutability": "view",
      "type": "function",
      "constant": true
    },
    {
      "inputs": [],
      "name": "imageUrl",
      "outputs": [
        {
          "internalType": "string",
          "name": "",
          "type": "string"
        }
      ],
      "stateMutability": "view",
      "type": "function",
      "constant": true
    },
    {
      "inputs": [],
      "name": "owner",
      "outputs": [
        {
          "internalType": "address",
          "name": "",
          "type": "address"
        }
      ],
      "stateMutability": "view",
      "type": "function",
      "constant": true
    },
    {
      "inputs": [],
      "name": "socialUrl",
      "outputs": [
        {
          "internalType": "string",
          "name": "",
          "type": "string"
        }
      ],
      "stateMutability": "view",
      "type": "function",
      "constant": true
    },
    {
      "inputs": [],
      "name": "tipCount",
      "outputs": [
        {
          "internalType": "uint256",
          "name": "",
          "type": "uint256"
        }
      ],
      "stateMutability": "view",
      "type": "function",
      "constant": true
    },
    {
      "inputs": [],
      "name": "tipTotal",
      "outputs": [
        {
          "internalType": "uint256",
          "name": "",
          "type": "uint256"
        }
      ],
      "stateMutability": "view",
      "type": "function",
      "constant": true
    },
    {
      "stateMutability": "payable",
      "type": "receive",
      "payable": true
    },
    {
      "inputs": [
        {
          "internalType": "uint256",
          "name": "_tipAmount",
          "type": "uint256"
        }
      ],
      "name": "tip",
      "outputs": [],
      "stateMutability": "payable",
      "type": "function",
      "payable": true
    },
    {
      "inputs": [],
      "name": "follow",
      "outputs": [],
      "stateMutability": "nonpayable",
      "type": "function"
    },
    {
      "inputs": [],
      "name": "unfollow",
      "outputs": [],
      "stateMutability": "nonpayable",
      "type": "function"
    },
    {
      "inputs": [
        {
          "internalType": "address payable",
          "name": "recipient",
          "type": "address"
        },
        {
          "internalType": "uint256",
          "name": "amount",
          "type": "uint256"
        }
      ],
      "name": "payOut",
      "outputs": [],
      "stateMutability": "nonpayable",
      "type": "function"
    },
    {
      "inputs": [
        {
          "internalType": "address payable",
          "name": "recipient",
          "type": "address"
        }
      ],
      "name": "payOutBalance",
      "outputs": [],
      "stateMutability": "nonpayable",
      "type": "function"
    },
    {
      "inputs": [
        {
          "internalType": "string",
          "name": "_artistName",
          "type": "string"
        },
        {
          "internalType": "string",
          "name": "_imageUrl",
          "type": "string"
        },
        {
          "internalType": "string",
          "name": "_descriptionUrl",
          "type": "string"
        },
        {
          "internalType": "string",
          "name": "_socialUrl",
          "type": "string"
        }
      ],
      "name": "updateDetails",
      "outputs": [],
      "stateMutability": "nonpayable",
      "type": "function"
    },
    {
      "inputs": [],
      "name": "removeForwardingAddress",
      "outputs": [],
      "stateMutability": "nonpayable",
      "type": "function"
    },
    {
      "inputs": [
        {
          "internalType": "address payable",
          "name": "_forwardingAddress",
          "type": "address"
        }
      ],
      "name": "setForwardingAddress",
      "outputs": [],
      "stateMutability": "nonpayable",
      "type": "function"
    },
    {
      "inputs": [
        {
          "internalType": "address",
          "name": "_owner",
          "type": "address"
        }
      ],
      "name": "setOwner",
      "outputs": [],
      "stateMutability": "nonpayable",
      "type": "function"
    },
    {
      "inputs": [
        {
          "internalType": "string",
          "name": "_artistName",
          "type": "string"
        }
      ],
      "name": "setArtistName",
      "outputs": [],
      "stateMutability": "nonpayable",
      "type": "function"
    },
    {
      "inputs": [
        {
          "internalType": "string",
          "name": "_imageUrl",
          "type": "string"
        }
      ],
      "name": "setImageUrl",
      "outputs": [],
      "stateMutability": "nonpayable",
      "type": "function"
    },
    {
      "inputs": [
        {
          "internalType": "string",
          "name": "_descriptionUrl",
          "type": "string"
        }
      ],
      "name": "setDescriptionUrl",
      "outputs": [],
      "stateMutability": "nonpayable",
      "type": "function"
    },
    {
      "inputs": [
        {
          "internalType": "string",
          "name": "_socialUrl",
          "type": "string"
        }
      ],
      "name": "setSocialUrl",
      "outputs": [],
      "stateMutability": "nonpayable",
      "type": "function"
    }
  ],
  "bytecode": "0x60806040526040518060400160405280600481526020017f76302e33000000000000000000000000000000000000000000000000000000008152506001908051906020019062000051929190620001c7565b5060006009556000600a556000600c553480156200006e57600080fd5b506040516200256338038062002563833981810160405281019062000094919062000300565b84600260006101000a81548173ffffffffffffffffffffffffffffffffffffffff021916908373ffffffffffffffffffffffffffffffffffffffff16021790555033600360006101000a81548173ffffffffffffffffffffffffffffffffffffffff021916908373ffffffffffffffffffffffffffffffffffffffff16021790555083600590805190602001906200012e929190620001c7565b50826006908051906020019062000147929190620001c7565b50816007908051906020019062000160929190620001c7565b50806008908051906020019062000179929190620001c7565b506000600460006101000a81548173ffffffffffffffffffffffffffffffffffffffff021916908373ffffffffffffffffffffffffffffffffffffffff160217905550505050505062000565565b828054620001d590620004b7565b90600052602060002090601f016020900481019282620001f9576000855562000245565b82601f106200021457805160ff191683800117855562000245565b8280016001018555821562000245579182015b828111156200024457825182559160200191906001019062000227565b5b50905062000254919062000258565b5090565b5b808211156200027357600081600090555060010162000259565b5090565b60006200028e62000288846200041a565b620003e6565b905082815260208101848484011115620002a757600080fd5b620002b484828562000481565b509392505050565b600081519050620002cd816200054b565b92915050565b600082601f830112620002e557600080fd5b8151620002f784826020860162000277565b91505092915050565b600080600080600060a086880312156200031957600080fd5b60006200032988828901620002bc565b955050602086015167ffffffffffffffff8111156200034757600080fd5b6200035588828901620002d3565b945050604086015167ffffffffffffffff8111156200037357600080fd5b6200038188828901620002d3565b935050606086015167ffffffffffffffff8111156200039f57600080fd5b620003ad88828901620002d3565b925050608086015167ffffffffffffffff811115620003cb57600080fd5b620003d988828901620002d3565b9150509295509295909350565b6000604051905081810181811067ffffffffffffffff8211171562000410576200040f6200051c565b5b8060405250919050565b600067ffffffffffffffff8211156200043857620004376200051c565b5b601f19601f8301169050602081019050919050565b60006200045a8262000461565b9050919050565b600073ffffffffffffffffffffffffffffffffffffffff82169050919050565b60005b83811015620004a157808201518184015260208101905062000484565b83811115620004b1576000848401525b50505050565b60006002820490506001821680620004d057607f821691505b60208210811415620004e757620004e6620004ed565b5b50919050565b7f4e487b7100000000000000000000000000000000000000000000000000000000600052602260045260246000fd5b7f4e487b7100000000000000000000000000000000000000000000000000000000600052604160045260246000fd5b62000556816200044d565b81146200056257600080fd5b50565b611fee80620005756000396000f3fe60806040526004361061016a5760003560e01c80637865bc11116100d1578063b4837d9e1161008a578063e31e9c9011610064578063e31e9c9014610574578063e8b69bc31461059f578063f09db170146105bb578063ff2543ea146105e457610220565b8063b4837d9e146104f5578063d17075511461051e578063dfea21df1461054957610220565b80637865bc111461041b5780638da5cb5b14610432578063a0a8e4601461045d578063a433ccc714610488578063aba831501461049f578063ac3e3d8d146104ca57610220565b80634d798a39116101235780634d798a391461031f57806351414b941461034a5780635b2f515b146103615780636049a45d1461038c5780636665d99a146103b557806374a5a41b146103de57610220565b80630221038a1461022557806313af40351461024e5780632abff1f2146102775780632fc5a6e5146102a05780633a5673a4146102c957806345c840dd146102f457610220565b3661022057600073ffffffffffffffffffffffffffffffffffffffff16600460009054906101000a900473ffffffffffffffffffffffffffffffffffffffff1673ffffffffffffffffffffffffffffffffffffffff161461021e57600460009054906101000a900473ffffffffffffffffffffffffffffffffffffffff1673ffffffffffffffffffffffffffffffffffffffff166108fc349081150290604051600060405180830381858888f19350505050505b005b600080fd5b34801561023157600080fd5b5061024c60048036038101906102479190611827565b61060d565b005b34801561025a57600080fd5b50610275600480360381019061027091906117d5565b61078d565b005b34801561028357600080fd5b5061029e6004803603810190610299919061188c565b610861565b005b3480156102ac57600080fd5b506102c760048036038101906102c2919061188c565b61090b565b005b3480156102d557600080fd5b506102de6109b5565b6040516102eb9190611b26565b60405180910390f35b34801561030057600080fd5b506103096109db565b6040516103169190611b41565b60405180910390f35b34801561032b57600080fd5b50610334610a01565b6040516103419190611bd7565b60405180910390f35b34801561035657600080fd5b5061035f610a8f565b005b34801561036d57600080fd5b50610376610b63565b6040516103839190611bd7565b60405180910390f35b34801561039857600080fd5b506103b360048036038101906103ae91906118cd565b610bf1565b005b3480156103c157600080fd5b506103dc60048036038101906103d791906117fe565b610ce3565b005b3480156103ea57600080fd5b50610405600480360381019061040091906117d5565b610db7565b6040516104129190611bbc565b60405180910390f35b34801561042757600080fd5b50610430610dd7565b005b34801561043e57600080fd5b50610447610e9c565b6040516104549190611b26565b60405180910390f35b34801561046957600080fd5b50610472610ec2565b60405161047f9190611bd7565b60405180910390f35b34801561049457600080fd5b5061049d610f50565b005b3480156104ab57600080fd5b506104b4611014565b6040516104c19190611bd7565b60405180910390f35b3480156104d657600080fd5b506104df6110a2565b6040516104ec9190611c59565b60405180910390f35b34801561050157600080fd5b5061051c6004803603810190610517919061188c565b6110a8565b005b34801561052a57600080fd5b50610533611152565b6040516105409190611bd7565b60405180910390f35b34801561055557600080fd5b5061055e6111e0565b60405161056b9190611c59565b60405180910390f35b34801561058057600080fd5b506105896111e6565b6040516105969190611c59565b60405180910390f35b6105b960048036038101906105b49190611990565b6111ec565b005b3480156105c757600080fd5b506105e260048036038101906105dd91906117fe565b6112fa565b005b3480156105f057600080fd5b5061060b6004803603810190610606919061188c565b6115b7565b005b600260009054906101000a900473ffffffffffffffffffffffffffffffffffffffff1673ffffffffffffffffffffffffffffffffffffffff163373ffffffffffffffffffffffffffffffffffffffff161461069d576040517f08c379a000000000000000000000000000000000000000000000000000000000815260040161069490611c19565b60405180910390fd5b60008054906101000a900473ffffffffffffffffffffffffffffffffffffffff1673ffffffffffffffffffffffffffffffffffffffff1663a9059cbb83836040518363ffffffff1660e01b81526004016106f8929190611b5c565b602060405180830381600087803b15801561071257600080fd5b505af1158015610726573d6000803e3d6000fd5b505050506040513d601f19601f8201168201806040525081019061074a9190611863565b610789576040517f08c379a000000000000000000000000000000000000000000000000000000000815260040161078090611c39565b60405180910390fd5b5050565b600260009054906101000a900473ffffffffffffffffffffffffffffffffffffffff1673ffffffffffffffffffffffffffffffffffffffff163373ffffffffffffffffffffffffffffffffffffffff161461081d576040517f08c379a000000000000000000000000000000000000000000000000000000000815260040161081490611c19565b60405180910390fd5b80600260006101000a81548173ffffffffffffffffffffffffffffffffffffffff021916908373ffffffffffffffffffffffffffffffffffffffff16021790555050565b600260009054906101000a900473ffffffffffffffffffffffffffffffffffffffff1673ffffffffffffffffffffffffffffffffffffffff163373ffffffffffffffffffffffffffffffffffffffff16146108f1576040517f08c379a00000000000000000000000000000000000000000000000000000000081526004016108e890611c19565b60405180910390fd5b8060069080519060200190610907929190611661565b5050565b600260009054906101000a900473ffffffffffffffffffffffffffffffffffffffff1673ffffffffffffffffffffffffffffffffffffffff163373ffffffffffffffffffffffffffffffffffffffff161461099b576040517f08c379a000000000000000000000000000000000000000000000000000000000815260040161099290611c19565b60405180910390fd5b80600790805190602001906109b1929190611661565b5050565b600360009054906101000a900473ffffffffffffffffffffffffffffffffffffffff1681565b600460009054906101000a900473ffffffffffffffffffffffffffffffffffffffff1681565b60078054610a0e90611e43565b80601f0160208091040260200160405190810160405280929190818152602001828054610a3a90611e43565b8015610a875780601f10610a5c57610100808354040283529160200191610a87565b820191906000526020600020905b815481529060010190602001808311610a6a57829003601f168201915b505050505081565b600260009054906101000a900473ffffffffffffffffffffffffffffffffffffffff1673ffffffffffffffffffffffffffffffffffffffff163373ffffffffffffffffffffffffffffffffffffffff1614610b1f576040517f08c379a0000000000000000000000000000000000000000000000000000000008152600401610b1690611c19565b60405180910390fd5b6000600460006101000a81548173ffffffffffffffffffffffffffffffffffffffff021916908373ffffffffffffffffffffffffffffffffffffffff160217905550565b60058054610b7090611e43565b80601f0160208091040260200160405190810160405280929190818152602001828054610b9c90611e43565b8015610be95780601f10610bbe57610100808354040283529160200191610be9565b820191906000526020600020905b815481529060010190602001808311610bcc57829003601f168201915b505050505081565b600260009054906101000a900473ffffffffffffffffffffffffffffffffffffffff1673ffffffffffffffffffffffffffffffffffffffff163373ffffffffffffffffffffffffffffffffffffffff1614610c81576040517f08c379a0000000000000000000000000000000000000000000000000000000008152600401610c7890611c19565b60405180910390fd5b8360059080519060200190610c97929190611661565b508260069080519060200190610cae929190611661565b508160079080519060200190610cc5929190611661565b508060089080519060200190610cdc929190611661565b5050505050565b600260009054906101000a900473ffffffffffffffffffffffffffffffffffffffff1673ffffffffffffffffffffffffffffffffffffffff163373ffffffffffffffffffffffffffffffffffffffff1614610d73576040517f08c379a0000000000000000000000000000000000000000000000000000000008152600401610d6a90611c19565b60405180910390fd5b80600460006101000a81548173ffffffffffffffffffffffffffffffffffffffff021916908373ffffffffffffffffffffffffffffffffffffffff16021790555050565b600b6020528060005260406000206000915054906101000a900460ff1681565b600b60003373ffffffffffffffffffffffffffffffffffffffff1673ffffffffffffffffffffffffffffffffffffffff16815260200190815260200160002060009054906101000a900460ff1615610e9a576000600b60003373ffffffffffffffffffffffffffffffffffffffff1673ffffffffffffffffffffffffffffffffffffffff16815260200190815260200160002060006101000a81548160ff021916908315150217905550600c6000815480929190610e9490611e19565b91905055505b565b600260009054906101000a900473ffffffffffffffffffffffffffffffffffffffff1681565b60018054610ecf90611e43565b80601f0160208091040260200160405190810160405280929190818152602001828054610efb90611e43565b8015610f485780601f10610f1d57610100808354040283529160200191610f48565b820191906000526020600020905b815481529060010190602001808311610f2b57829003601f168201915b505050505081565b600b60003373ffffffffffffffffffffffffffffffffffffffff1673ffffffffffffffffffffffffffffffffffffffff16815260200190815260200160002060009054906101000a900460ff16611012576001600b60003373ffffffffffffffffffffffffffffffffffffffff1673ffffffffffffffffffffffffffffffffffffffff16815260200190815260200160002060006101000a81548160ff021916908315150217905550600c600081548092919061100c90611e75565b91905055505b565b6006805461102190611e43565b80601f016020809104026020016040519081016040528092919081815260200182805461104d90611e43565b801561109a5780601f1061106f5761010080835404028352916020019161109a565b820191906000526020600020905b81548152906001019060200180831161107d57829003601f168201915b505050505081565b600c5481565b600260009054906101000a900473ffffffffffffffffffffffffffffffffffffffff1673ffffffffffffffffffffffffffffffffffffffff163373ffffffffffffffffffffffffffffffffffffffff1614611138576040517f08c379a000000000000000000000000000000000000000000000000000000000815260040161112f90611c19565b60405180910390fd5b806005908051906020019061114e929190611661565b5050565b6008805461115f90611e43565b80601f016020809104026020016040519081016040528092919081815260200182805461118b90611e43565b80156111d85780601f106111ad576101008083540402835291602001916111d8565b820191906000526020600020905b8154815290600101906020018083116111bb57829003601f168201915b505050505081565b600a5481565b60095481565b600960008154809291906111ff90611e75565b919050555080600a60008282546112169190611cf1565b9250508190555060008054906101000a900473ffffffffffffffffffffffffffffffffffffffff1673ffffffffffffffffffffffffffffffffffffffff166323b872dd33600260009054906101000a900473ffffffffffffffffffffffffffffffffffffffff16846040518463ffffffff1660e01b815260040161129c93929190611b85565b602060405180830381600087803b1580156112b657600080fd5b505af11580156112ca573d6000803e3d6000fd5b505050506040513d601f19601f820116820180604052508101906112ee9190611863565b6112f757600080fd5b50565b600260009054906101000a900473ffffffffffffffffffffffffffffffffffffffff1673ffffffffffffffffffffffffffffffffffffffff163373ffffffffffffffffffffffffffffffffffffffff161461138a576040517f08c379a000000000000000000000000000000000000000000000000000000000815260040161138190611c19565b60405180910390fd5b8073ffffffffffffffffffffffffffffffffffffffff166108fc479081150290604051600060405180830381858888f193505050506113fe576040517f08c379a00000000000000000000000000000000000000000000000000000000081526004016113f590611bf9565b60405180910390fd5b60008054906101000a900473ffffffffffffffffffffffffffffffffffffffff1673ffffffffffffffffffffffffffffffffffffffff1663a9059cbb8260008054906101000a900473ffffffffffffffffffffffffffffffffffffffff1673ffffffffffffffffffffffffffffffffffffffff166370a08231600260009054906101000a900473ffffffffffffffffffffffffffffffffffffffff166040518263ffffffff1660e01b81526004016114b69190611b26565b60206040518083038186803b1580156114ce57600080fd5b505afa1580156114e2573d6000803e3d6000fd5b505050506040513d601f19601f8201168201806040525081019061150691906119b9565b6040518363ffffffff1660e01b8152600401611523929190611b5c565b602060405180830381600087803b15801561153d57600080fd5b505af1158015611551573d6000803e3d6000fd5b505050506040513d601f19601f820116820180604052508101906115759190611863565b6115b4576040517f08c379a00000000000000000000000000000000000000000000000000000000081526004016115ab90611c39565b60405180910390fd5b50565b600260009054906101000a900473ffffffffffffffffffffffffffffffffffffffff1673ffffffffffffffffffffffffffffffffffffffff163373ffffffffffffffffffffffffffffffffffffffff1614611647576040517f08c379a000000000000000000000000000000000000000000000000000000000815260040161163e90611c19565b60405180910390fd5b806008908051906020019061165d929190611661565b5050565b82805461166d90611e43565b90600052602060002090601f01602090048101928261168f57600085556116d6565b82601f106116a857805160ff19168380011785556116d6565b828001600101855582156116d6579182015b828111156116d55782518255916020019190600101906116ba565b5b5090506116e391906116e7565b5090565b5b808211156117005760008160009055506001016116e8565b5090565b600061171761171284611ca5565b611c74565b90508281526020810184848401111561172f57600080fd5b61173a848285611dd7565b509392505050565b60008135905061175181611f5c565b92915050565b60008135905061176681611f73565b92915050565b60008151905061177b81611f8a565b92915050565b600082601f83011261179257600080fd5b81356117a2848260208601611704565b91505092915050565b6000813590506117ba81611fa1565b92915050565b6000815190506117cf81611fa1565b92915050565b6000602082840312156117e757600080fd5b60006117f584828501611742565b91505092915050565b60006020828403121561181057600080fd5b600061181e84828501611757565b91505092915050565b6000806040838503121561183a57600080fd5b600061184885828601611757565b9250506020611859858286016117ab565b9150509250929050565b60006020828403121561187557600080fd5b60006118838482850161176c565b91505092915050565b60006020828403121561189e57600080fd5b600082013567ffffffffffffffff8111156118b857600080fd5b6118c484828501611781565b91505092915050565b600080600080608085870312156118e357600080fd5b600085013567ffffffffffffffff8111156118fd57600080fd5b61190987828801611781565b945050602085013567ffffffffffffffff81111561192657600080fd5b61193287828801611781565b935050604085013567ffffffffffffffff81111561194f57600080fd5b61195b87828801611781565b925050606085013567ffffffffffffffff81111561197857600080fd5b61198487828801611781565b91505092959194509250565b6000602082840312156119a257600080fd5b60006119b0848285016117ab565b91505092915050565b6000602082840312156119cb57600080fd5b60006119d9848285016117c0565b91505092915050565b6119eb81611da1565b82525050565b6119fa81611d59565b82525050565b611a0981611d47565b82525050565b611a1881611d6b565b82525050565b6000611a2982611cd5565b611a338185611ce0565b9350611a43818560208601611de6565b611a4c81611f4b565b840191505092915050565b6000611a64601583611ce0565b91507f7061796f75742062616c616e6365206661696c656400000000000000000000006000830152602082019050919050565b6000611aa4601383611ce0565b91507f43616c6c6572206973206e6f74206f776e6572000000000000000000000000006000830152602082019050919050565b6000611ae4600d83611ce0565b91507f7061796f7574206661696c6564000000000000000000000000000000000000006000830152602082019050919050565b611b2081611d97565b82525050565b6000602082019050611b3b6000830184611a00565b92915050565b6000602082019050611b5660008301846119f1565b92915050565b6000604082019050611b7160008301856119e2565b611b7e6020830184611b17565b9392505050565b6000606082019050611b9a6000830186611a00565b611ba76020830185611a00565b611bb46040830184611b17565b949350505050565b6000602082019050611bd16000830184611a0f565b92915050565b60006020820190508181036000830152611bf18184611a1e565b905092915050565b60006020820190508181036000830152611c1281611a57565b9050919050565b60006020820190508181036000830152611c3281611a97565b9050919050565b60006020820190508181036000830152611c5281611ad7565b9050919050565b6000602082019050611c6e6000830184611b17565b92915050565b6000604051905081810181811067ffffffffffffffff82111715611c9b57611c9a611f1c565b5b8060405250919050565b600067ffffffffffffffff821115611cc057611cbf611f1c565b5b601f19601f8301169050602081019050919050565b600081519050919050565b600082825260208201905092915050565b6000611cfc82611d97565b9150611d0783611d97565b9250827fffffffffffffffffffffffffffffffffffffffffffffffffffffffffffffffff03821115611d3c57611d3b611ebe565b5b828201905092915050565b6000611d5282611d77565b9050919050565b6000611d6482611d77565b9050919050565b60008115159050919050565b600073ffffffffffffffffffffffffffffffffffffffff82169050919050565b6000819050919050565b6000611dac82611db3565b9050919050565b6000611dbe82611dc5565b9050919050565b6000611dd082611d77565b9050919050565b82818337600083830152505050565b60005b83811015611e04578082015181840152602081019050611de9565b83811115611e13576000848401525b50505050565b6000611e2482611d97565b91506000821415611e3857611e37611ebe565b5b600182039050919050565b60006002820490506001821680611e5b57607f821691505b60208210811415611e6f57611e6e611eed565b5b50919050565b6000611e8082611d97565b91507fffffffffffffffffffffffffffffffffffffffffffffffffffffffffffffffff821415611eb357611eb2611ebe565b5b600182019050919050565b7f4e487b7100000000000000000000000000000000000000000000000000000000600052601160045260246000fd5b7f4e487b7100000000000000000000000000000000000000000000000000000000600052602260045260246000fd5b7f4e487b7100000000000000000000000000000000000000000000000000000000600052604160045260246000fd5b6000601f19601f8301169050919050565b611f6581611d47565b8114611f7057600080fd5b50565b611f7c81611d59565b8114611f8757600080fd5b50565b611f9381611d6b565b8114611f9e57600080fd5b50565b611faa81611d97565b8114611fb557600080fd5b5056fea26469706673582212209733fd9983e3574bdd40b43065fe235101a3fd5429cc93d8e93a43c418ce3aab64736f6c63430008000033",
  "immutableReferences": {},
  "source": "// SPDX-License-Identifier: MIT\npragma solidity ^0.8.0;\n\nimport \"./MUSIC_Schain.sol\";\n\ncontract Artist {    \n    Music private musicToken;\n\n    string public contractVersion = \"v0.3\"; //rw what version does this now need to be?\n    address public owner;\n    address public createdBy;\n    address payable public forwardingAddress;   \n    string public artistName;\n    string public imageUrl;\n    string public descriptionUrl;\n    string public socialUrl;\n\n    uint public tipCount = 0;\n    uint public tipTotal = 0;\n    mapping(address => bool) public following;\n    uint public followers = 0;\n\n    modifier onlyOwner {\n        require(msg.sender == owner, \"Caller is not owner\");\n        _;\n    }\n\n    // \"0xca35b7d915458ef540ade6068dfe2f44e8fa733c\", \"Test\", \"Test\", \"Test\", \"test\"\n    constructor (\n        address _owner,\n        string memory _artistName,\n        string memory _imageUrl,\n        string memory _descriptionUrl,\n        string memory _socialUrl) {\n        owner = _owner;\n        createdBy = msg.sender;\n        artistName = _artistName;\n        imageUrl = _imageUrl;\n        descriptionUrl = _descriptionUrl;\n        socialUrl = _socialUrl;\n        forwardingAddress = payable(address(0));\n    }\n\n    receive () external payable {\n        // accept payments\n        //rw: This accepts ETH payments.  The tip function receives $MUSIC so the payouts need to handle both tokens\n        if (forwardingAddress != address(0)) {\n            if (!forwardingAddress.send(msg.value)) {\n                // ok, just hold onto it in this contract\n            }\n        }\n    }\n\n    function tip(uint _tipAmount) public payable {\n        tipCount++;\n        tipTotal += _tipAmount;\n        //tipTotal += msg.value;  //rw removed. The tip will now be in $MUSIC, not ETH.\n        //rw this does not collect any ETH sent with the msg.value object.  Assuming that will not happen from the UI/PlayerApp\n        //rw transferFrom will check the sender's wallet has enough $MUSIC to tip and then sends it to the owner of this contract\n        require(musicToken.transferFrom(msg.sender, owner, _tipAmount)); //rw why is this sent to the owner and not the forwardingAddress?\n    }\n\n    function follow() public {\n        if (!following[msg.sender]) {\n            following[msg.sender] = true;\n            followers++;\n        }\n    }\n\n    function unfollow() public {\n        if (following[msg.sender]) {\n            following[msg.sender] = false;\n            followers--;\n        }\n    }\n\n    function payOut(address payable recipient, uint amount) public onlyOwner {\n        //rw updated to send $MUSIC instead of ETH\n        //require(recipient.send(amount), \"payout failed\"); \n        require(musicToken.transfer(recipient, amount), \"payout failed\"); //rw why is this sent to the recipient and not the forwardingAddress?\n    }\n\n    function payOutBalance(address payable recipient) public onlyOwner {\n        //rw Although should only be using $MUSIC, the fallback receive function accepts ETH, so this pay out function will return the total balance of both ETH and $MUSIC\n        require (recipient.send(address(this).balance), \"payout balance failed\");\n        //rw updated to send the $MUSIC balance to the recipient from this contract (owner) as well\n        require(musicToken.transfer(recipient, musicToken.balanceOf(owner)), \"payout failed\"); //rw why is this sent to the recipient and not the forwardingAddress?\n    }\n\n    function updateDetails (\n        string memory _artistName,\n        string memory _imageUrl,\n        string memory _descriptionUrl,\n        string memory _socialUrl) public onlyOwner {\n        artistName = _artistName;\n        imageUrl = _imageUrl;\n        descriptionUrl = _descriptionUrl;\n        socialUrl = _socialUrl;\n    }\n\n    function removeForwardingAddress() public onlyOwner {\n        forwardingAddress = payable(address(0));\n    }\n\n    function setForwardingAddress(address payable _forwardingAddress) public onlyOwner {\n        forwardingAddress = _forwardingAddress;\n    }\n\n    function setOwner(address _owner) public onlyOwner {\n        owner = _owner;\n    }\n\n    function setArtistName(string memory _artistName) public onlyOwner {\n        artistName = _artistName;\n    }\n\n    function setImageUrl(string memory _imageUrl) public onlyOwner {\n        imageUrl = _imageUrl;\n    }\n\n    function setDescriptionUrl(string memory _descriptionUrl) public onlyOwner {\n        descriptionUrl = _descriptionUrl;\n    }\n\n    function setSocialUrl(string memory _socialUrl) public onlyOwner {\n        socialUrl = _socialUrl;\n    }\n}\n",
  "sourcePath": "/home/alpha/musiccoin/hackathon/contracts/Artist.sol",
  "compiler": {
    "name": "solc",
    "version": "0.8.0+commit.c7dfd78e.Emscripten.clang"
  },
  "schemaVersion": "3.3.4",
  "updatedAt": "2021-05-06T17:45:32.157Z",
  "networkType": "ethereum",
  "devdoc": {
    "kind": "dev",
    "methods": {},
    "version": 1
  },
  "userdoc": {
    "kind": "user",
    "methods": {},
    "version": 1
  }
}