{
  "contractName": "PayPerPlay",
  "abi": [
    {
      "inputs": [
        {
          "internalType": "address",
          "name": "_owner",
          "type": "address"
        },
        {
          "internalType": "string",
          "name": "_title",
          "type": "string"
        },
        {
          "internalType": "string",
          "name": "_artistName",
          "type": "string"
        },
        {
          "internalType": "address",
          "name": "_artistProfileAddress",
          "type": "address"
        },
        {
          "internalType": "uint256",
          "name": "_musicPerPlay",
          "type": "uint256"
        },
        {
          "internalType": "string",
          "name": "_resourceUrl",
          "type": "string"
        },
        {
          "internalType": "bytes32",
          "name": "_contentType",
          "type": "bytes32"
        },
        {
          "internalType": "string",
          "name": "_imageUrl",
          "type": "string"
        },
        {
          "internalType": "string",
          "name": "_metadataUrl",
          "type": "string"
        },
        {
          "internalType": "address[]",
          "name": "_contributors",
          "type": "address[]"
        },
        {
          "internalType": "uint256[]",
          "name": "_contributorShares",
          "type": "uint256[]"
        }
      ],
      "stateMutability": "nonpayable",
      "type": "constructor"
    },
    {
      "anonymous": false,
      "inputs": [
        {
          "indexed": false,
          "internalType": "string",
          "name": "oldArtistName",
          "type": "string"
        },
        {
          "indexed": false,
          "internalType": "string",
          "name": "newArtistName",
          "type": "string"
        }
      ],
      "name": "artistNameUpdateEvent",
      "type": "event"
    },
    {
      "anonymous": false,
      "inputs": [
        {
          "indexed": false,
          "internalType": "address",
          "name": "oldArtistAddress",
          "type": "address"
        },
        {
          "indexed": false,
          "internalType": "address",
          "name": "newArtistAddress",
          "type": "address"
        }
      ],
      "name": "artistProfileAddressUpdateEvent",
      "type": "event"
    },
    {
      "anonymous": false,
      "inputs": [
        {
          "indexed": false,
          "internalType": "string",
          "name": "oldImage",
          "type": "string"
        },
        {
          "indexed": false,
          "internalType": "string",
          "name": "newImage",
          "type": "string"
        }
      ],
      "name": "imageUpdateEvent",
      "type": "event"
    },
    {
      "anonymous": false,
      "inputs": [
        {
          "indexed": false,
          "internalType": "uint256",
          "name": "version",
          "type": "uint256"
        }
      ],
      "name": "licenseUpdateEvent",
      "type": "event"
    },
    {
      "anonymous": false,
      "inputs": [
        {
          "indexed": false,
          "internalType": "string",
          "name": "oldMetadata",
          "type": "string"
        },
        {
          "indexed": false,
          "internalType": "string",
          "name": "newMetadata",
          "type": "string"
        }
      ],
      "name": "metadataUpdateEvent",
      "type": "event"
    },
    {
      "anonymous": false,
      "inputs": [
        {
          "indexed": false,
          "internalType": "uint256",
          "name": "plays",
          "type": "uint256"
        }
      ],
      "name": "playEvent",
      "type": "event"
    },
    {
      "anonymous": false,
      "inputs": [
        {
          "indexed": false,
          "internalType": "string",
          "name": "oldResource",
          "type": "string"
        },
        {
          "indexed": false,
          "internalType": "string",
          "name": "newResource",
          "type": "string"
        }
      ],
      "name": "resourceUpdateEvent",
      "type": "event"
    },
    {
      "anonymous": false,
      "inputs": [
        {
          "indexed": false,
          "internalType": "uint256",
          "name": "plays",
          "type": "uint256"
        },
        {
          "indexed": false,
          "internalType": "uint256",
          "name": "tipCount",
          "type": "uint256"
        }
      ],
      "name": "tipEvent",
      "type": "event"
    },
    {
      "anonymous": false,
      "inputs": [
        {
          "indexed": false,
          "internalType": "string",
          "name": "oldTitle",
          "type": "string"
        },
        {
          "indexed": false,
          "internalType": "string",
          "name": "newTitle",
          "type": "string"
        }
      ],
      "name": "titleUpdateEvent",
      "type": "event"
    },
    {
      "anonymous": false,
      "inputs": [
        {
          "indexed": false,
          "internalType": "address",
          "name": "oldOwner",
          "type": "address"
        },
        {
          "indexed": false,
          "internalType": "address",
          "name": "newOwner",
          "type": "address"
        }
      ],
      "name": "transferEvent",
      "type": "event"
    },
    {
      "inputs": [],
      "name": "artistName",
      "outputs": [
        {
          "internalType": "string",
          "name": "",
          "type": "string"
        }
      ],
      "stateMutability": "view",
      "type": "function"
    },
    {
      "inputs": [],
      "name": "artistProfileAddress",
      "outputs": [
        {
          "internalType": "address",
          "name": "",
          "type": "address"
        }
      ],
      "stateMutability": "view",
      "type": "function"
    },
    {
      "inputs": [],
      "name": "contentType",
      "outputs": [
        {
          "internalType": "bytes32",
          "name": "",
          "type": "bytes32"
        }
      ],
      "stateMutability": "view",
      "type": "function"
    },
    {
      "inputs": [],
      "name": "contractVersion",
      "outputs": [
        {
          "internalType": "string",
          "name": "",
          "type": "string"
        }
      ],
      "stateMutability": "view",
      "type": "function"
    },
    {
      "inputs": [
        {
          "internalType": "uint256",
          "name": "",
          "type": "uint256"
        }
      ],
      "name": "contributorShares",
      "outputs": [
        {
          "internalType": "uint256",
          "name": "",
          "type": "uint256"
        }
      ],
      "stateMutability": "view",
      "type": "function"
    },
    {
      "inputs": [
        {
          "internalType": "uint256",
          "name": "",
          "type": "uint256"
        }
      ],
      "name": "contributors",
      "outputs": [
        {
          "internalType": "address",
          "name": "",
          "type": "address"
        }
      ],
      "stateMutability": "view",
      "type": "function"
    },
    {
      "inputs": [],
      "name": "createdBy",
      "outputs": [
        {
          "internalType": "address",
          "name": "",
          "type": "address"
        }
      ],
      "stateMutability": "view",
      "type": "function"
    },
    {
      "inputs": [],
      "name": "imageUrl",
      "outputs": [
        {
          "internalType": "string",
          "name": "",
          "type": "string"
        }
      ],
      "stateMutability": "view",
      "type": "function"
    },
    {
      "inputs": [],
      "name": "licenseVersion",
      "outputs": [
        {
          "internalType": "uint256",
          "name": "",
          "type": "uint256"
        }
      ],
      "stateMutability": "view",
      "type": "function"
    },
    {
      "inputs": [],
      "name": "metadataUrl",
      "outputs": [
        {
          "internalType": "string",
          "name": "",
          "type": "string"
        }
      ],
      "stateMutability": "view",
      "type": "function"
    },
    {
      "inputs": [],
      "name": "metadataVersion",
      "outputs": [
        {
          "internalType": "uint256",
          "name": "",
          "type": "uint256"
        }
      ],
      "stateMutability": "view",
      "type": "function"
    },
    {
      "inputs": [],
      "name": "musicPerPlay",
      "outputs": [
        {
          "internalType": "uint256",
          "name": "",
          "type": "uint256"
        }
      ],
      "stateMutability": "view",
      "type": "function"
    },
    {
      "inputs": [],
      "name": "owner",
      "outputs": [
        {
          "internalType": "address",
          "name": "",
          "type": "address"
        }
      ],
      "stateMutability": "view",
      "type": "function"
    },
    {
      "inputs": [],
      "name": "playCount",
      "outputs": [
        {
          "internalType": "uint256",
          "name": "",
          "type": "uint256"
        }
      ],
      "stateMutability": "view",
      "type": "function"
    },
    {
      "inputs": [],
      "name": "resourceUrl",
      "outputs": [
        {
          "internalType": "string",
          "name": "",
          "type": "string"
        }
      ],
      "stateMutability": "view",
      "type": "function"
    },
    {
      "inputs": [],
      "name": "tipCount",
      "outputs": [
        {
          "internalType": "uint256",
          "name": "",
          "type": "uint256"
        }
      ],
      "stateMutability": "view",
      "type": "function"
    },
    {
      "inputs": [],
      "name": "title",
      "outputs": [
        {
          "internalType": "string",
          "name": "",
          "type": "string"
        }
      ],
      "stateMutability": "view",
      "type": "function"
    },
    {
      "inputs": [],
      "name": "totalEarned",
      "outputs": [
        {
          "internalType": "uint256",
          "name": "",
          "type": "uint256"
        }
      ],
      "stateMutability": "view",
      "type": "function"
    },
    {
      "inputs": [],
      "name": "totalShares",
      "outputs": [
        {
          "internalType": "uint256",
          "name": "",
          "type": "uint256"
        }
      ],
      "stateMutability": "view",
      "type": "function"
    },
    {
      "inputs": [],
      "name": "totalTipped",
      "outputs": [
        {
          "internalType": "uint256",
          "name": "",
          "type": "uint256"
        }
      ],
      "stateMutability": "view",
      "type": "function"
    },
    {
      "inputs": [
        {
          "internalType": "uint256",
          "name": "_tipAmount",
          "type": "uint256"
        }
      ],
      "name": "tip",
      "outputs": [],
      "stateMutability": "payable",
      "type": "function"
    },
    {
      "inputs": [],
      "name": "getContributorsLength",
      "outputs": [
        {
          "internalType": "uint256",
          "name": "",
          "type": "uint256"
        }
      ],
      "stateMutability": "view",
      "type": "function"
    },
    {
      "inputs": [
        {
          "internalType": "uint256",
          "name": "_pppAmount",
          "type": "uint256"
        }
      ],
      "name": "play",
      "outputs": [],
      "stateMutability": "payable",
      "type": "function"
    },
    {
      "inputs": [],
      "name": "play",
      "outputs": [],
      "stateMutability": "payable",
      "type": "function"
    },
    {
      "inputs": [
        {
          "internalType": "address",
          "name": "newOwner",
          "type": "address"
        }
      ],
      "name": "transferOwnership",
      "outputs": [],
      "stateMutability": "nonpayable",
      "type": "function"
    },
    {
      "inputs": [
        {
          "internalType": "string",
          "name": "newTitle",
          "type": "string"
        }
      ],
      "name": "updateTitle",
      "outputs": [],
      "stateMutability": "nonpayable",
      "type": "function"
    },
    {
      "inputs": [
        {
          "internalType": "string",
          "name": "newArtistName",
          "type": "string"
        }
      ],
      "name": "updateArtistName",
      "outputs": [],
      "stateMutability": "nonpayable",
      "type": "function"
    },
    {
      "inputs": [
        {
          "internalType": "string",
          "name": "newResourceUrl",
          "type": "string"
        }
      ],
      "name": "updateResourceUrl",
      "outputs": [],
      "stateMutability": "nonpayable",
      "type": "function"
    },
    {
      "inputs": [
        {
          "internalType": "string",
          "name": "newImageUrl",
          "type": "string"
        }
      ],
      "name": "updateImageUrl",
      "outputs": [],
      "stateMutability": "nonpayable",
      "type": "function"
    },
    {
      "inputs": [
        {
          "internalType": "address",
          "name": "newArtistAddress",
          "type": "address"
        }
      ],
      "name": "updateArtistAddress",
      "outputs": [],
      "stateMutability": "nonpayable",
      "type": "function"
    },
    {
      "inputs": [
        {
          "internalType": "string",
          "name": "newMetadataUrl",
          "type": "string"
        }
      ],
      "name": "updateMetadataUrl",
      "outputs": [],
      "stateMutability": "nonpayable",
      "type": "function"
    },
    {
      "inputs": [
        {
          "internalType": "uint256",
          "name": "_musicPerPlay",
          "type": "uint256"
        },
        {
          "internalType": "address[]",
          "name": "_contributors",
          "type": "address[]"
        },
        {
          "internalType": "uint256[]",
          "name": "_contributorShares",
          "type": "uint256[]"
        }
      ],
      "name": "updateLicense",
      "outputs": [],
      "stateMutability": "nonpayable",
      "type": "function"
    },
    {
      "inputs": [],
      "name": "distributeBalance",
      "outputs": [],
      "stateMutability": "nonpayable",
      "type": "function"
    },
    {
      "inputs": [
        {
          "internalType": "bool",
          "name": "_distributeBalanceFirst",
          "type": "bool"
        }
      ],
      "name": "kill",
      "outputs": [],
      "stateMutability": "nonpayable",
      "type": "function"
    }
  ],
  "bytecode": "0x60806040523480156200001157600080fd5b506040516200397138038062003971833981810160405281019062000037919062000823565b89600390805190602001906200004f92919062000497565b5088600490805190602001906200006892919062000497565b508460078190555087600560006101000a81548173ffffffffffffffffffffffffffffffffffffffff021916908373ffffffffffffffffffffffffffffffffffffffff16021790555033600260006101000a81548173ffffffffffffffffffffffffffffffffffffffff021916908373ffffffffffffffffffffffffffffffffffffffff16021790555085600690805190602001906200010a92919062000497565b5082600890805190602001906200012392919062000497565b5083600990805190602001906200013c92919062000497565b5033600160006101000a81548173ffffffffffffffffffffffffffffffffffffffff021916908373ffffffffffffffffffffffffffffffffffffffff16021790555062000191878383620001e360201b60201c565b8a600160006101000a81548173ffffffffffffffffffffffffffffffffffffffff021916908373ffffffffffffffffffffffffffffffffffffffff160217905550505050505050505050505062000ef0565b600160009054906101000a900473ffffffffffffffffffffffffffffffffffffffff1673ffffffffffffffffffffffffffffffffffffffff163373ffffffffffffffffffffffffffffffffffffffff161462000276576040517f08c379a00000000000000000000000000000000000000000000000000000000081526004016200026d9062000afc565b60405180910390fd5b8051825114620002bd576040517f08c379a0000000000000000000000000000000000000000000000000000000008152600401620002b49062000b40565b60405180910390fd5b82600a8190555081600b9080519060200190620002dc92919062000528565b5080600c9080519060200190620002f5929190620005b7565b506000600d8190555060005b600b805490508110156200038557600c81815481106200034a577f4e487b7100000000000000000000000000000000000000000000000000000000600052603260045260246000fd5b9060005260206000200154600d600082825462000368919062000c55565b9250508190555080806200037c9062000dc7565b91505062000301565b506000600d541480156200039e57506000600b80549050115b15620003e1576040517f08c379a0000000000000000000000000000000000000000000000000000000008152600401620003d89062000b1e565b60405180910390fd5b620003f7600b805490506200045760201b60201c565b60148190555060126000815480929190620004129062000dc7565b91905055507f8b39b01c7d0d1bd288204f8e12eec2e0ad2b3631ab809dcfe99161c9aefb864d6012546040516200044a919062000b62565b60405180910390a1505050565b60008060008062000469919062000c55565b62000475919062000c55565b8262000482919062000cb2565b600062000490919062000c55565b9050919050565b828054620004a59062000d91565b90600052602060002090601f016020900481019282620004c9576000855562000515565b82601f10620004e457805160ff191683800117855562000515565b8280016001018555821562000515579182015b8281111562000514578251825591602001919060010190620004f7565b5b50905062000524919062000609565b5090565b828054828255906000526020600020908101928215620005a4579160200282015b82811115620005a35782518260006101000a81548173ffffffffffffffffffffffffffffffffffffffff021916908373ffffffffffffffffffffffffffffffffffffffff1602179055509160200191906001019062000549565b5b509050620005b3919062000609565b5090565b828054828255906000526020600020908101928215620005f6579160200282015b82811115620005f5578251825591602001919060010190620005d8565b5b50905062000605919062000609565b5090565b5b80821115620006245760008160009055506001016200060a565b5090565b60006200063f620006398462000bb3565b62000b7f565b905080838252602082019050828560208602820111156200065f57600080fd5b60005b8581101562000693578162000678888262000757565b84526020840193506020830192505060018101905062000662565b5050509392505050565b6000620006b4620006ae8462000be2565b62000b7f565b90508083825260208201905082856020860282011115620006d457600080fd5b60005b85811015620007085781620006ed88826200080c565b845260208401935060208301925050600181019050620006d7565b5050509392505050565b600062000729620007238462000c11565b62000b7f565b9050828152602081018484840111156200074257600080fd5b6200074f84828562000d5b565b509392505050565b600081519050620007688162000ea2565b92915050565b600082601f8301126200078057600080fd5b81516200079284826020860162000628565b91505092915050565b600082601f830112620007ad57600080fd5b8151620007bf8482602086016200069d565b91505092915050565b600081519050620007d98162000ebc565b92915050565b600082601f830112620007f157600080fd5b81516200080384826020860162000712565b91505092915050565b6000815190506200081d8162000ed6565b92915050565b60008060008060008060008060008060006101608c8e0312156200084657600080fd5b6000620008568e828f0162000757565b9b505060208c015167ffffffffffffffff8111156200087457600080fd5b620008828e828f01620007df565b9a505060408c015167ffffffffffffffff811115620008a057600080fd5b620008ae8e828f01620007df565b9950506060620008c18e828f0162000757565b9850506080620008d48e828f016200080c565b97505060a08c015167ffffffffffffffff811115620008f257600080fd5b620009008e828f01620007df565b96505060c0620009138e828f01620007c8565b95505060e08c015167ffffffffffffffff8111156200093157600080fd5b6200093f8e828f01620007df565b9450506101008c015167ffffffffffffffff8111156200095e57600080fd5b6200096c8e828f01620007df565b9350506101208c015167ffffffffffffffff8111156200098b57600080fd5b620009998e828f016200076e565b9250506101408c015167ffffffffffffffff811115620009b857600080fd5b620009c68e828f016200079b565b9150509295989b509295989b9093969950565b6000620009e860138362000c44565b91507f43616c6c6572206973206e6f74206f776e6572000000000000000000000000006000830152602082019050919050565b600062000a2a60208362000c44565b91507f546f74616c20736861726573206d757374206265206d6f7265207468616e20306000830152602082019050919050565b600062000a6c60418362000c44565b91507f5468652023206f6620636f6e7472696275746f727320646f6573206e6f74206d60008301527f61746368207468652023206f6620636f6e7472696275746f722073686172657360208301527f2e000000000000000000000000000000000000000000000000000000000000006040830152606082019050919050565b62000af68162000d51565b82525050565b6000602082019050818103600083015262000b1781620009d9565b9050919050565b6000602082019050818103600083015262000b398162000a1b565b9050919050565b6000602082019050818103600083015262000b5b8162000a5d565b9050919050565b600060208201905062000b79600083018462000aeb565b92915050565b6000604051905081810181811067ffffffffffffffff8211171562000ba95762000ba862000e73565b5b8060405250919050565b600067ffffffffffffffff82111562000bd15762000bd062000e73565b5b602082029050602081019050919050565b600067ffffffffffffffff82111562000c005762000bff62000e73565b5b602082029050602081019050919050565b600067ffffffffffffffff82111562000c2f5762000c2e62000e73565b5b601f19601f8301169050602081019050919050565b600082825260208201905092915050565b600062000c628262000d51565b915062000c6f8362000d51565b9250827fffffffffffffffffffffffffffffffffffffffffffffffffffffffffffffffff0382111562000ca75762000ca662000e15565b5b828201905092915050565b600062000cbf8262000d51565b915062000ccc8362000d51565b9250817fffffffffffffffffffffffffffffffffffffffffffffffffffffffffffffffff048311821515161562000d085762000d0762000e15565b5b828202905092915050565b600062000d208262000d31565b9050919050565b6000819050919050565b600073ffffffffffffffffffffffffffffffffffffffff82169050919050565b6000819050919050565b60005b8381101562000d7b57808201518184015260208101905062000d5e565b8381111562000d8b576000848401525b50505050565b6000600282049050600182168062000daa57607f821691505b6020821081141562000dc15762000dc062000e44565b5b50919050565b600062000dd48262000d51565b91507fffffffffffffffffffffffffffffffffffffffffffffffffffffffffffffffff82141562000e0a5762000e0962000e15565b5b600182019050919050565b7f4e487b7100000000000000000000000000000000000000000000000000000000600052601160045260246000fd5b7f4e487b7100000000000000000000000000000000000000000000000000000000600052602260045260246000fd5b7f4e487b7100000000000000000000000000000000000000000000000000000000600052604160045260246000fd5b62000ead8162000d13565b811462000eb957600080fd5b50565b62000ec78162000d27565b811462000ed357600080fd5b50565b62000ee18162000d51565b811462000eed57600080fd5b50565b612a718062000f006000396000f3fe6080604052600436106101f95760003560e01c80637132048c1161010d578063b10f0fdf116100a0578063d008b5c91161006f578063d008b5c91461069d578063e0b7f8b2146106c6578063e31e9c9014610703578063e8b69bc31461072e578063f2fde38b1461074a576101f9565b8063b10f0fdf146105f3578063b784c9661461061e578063b814b7ed14610647578063cd29c71a14610672576101f9565b806393e84cd9116100dc57806393e84cd9146105685780639761430214610572578063a0a8e4601461059d578063aba83150146105c8576101f9565b80637132048c146104d45780637943da69146104fd5780638da5cb5b1461051457806391a8b36a1461053f576101f9565b80634ab6d3371161019057806354c937a31161015f57806354c937a31461040e5780635b2f515b1461043957806366f8913d146104645780636898f82b1461048d5780636dfa8d99146104a9576101f9565b80634ab6d3371461036457806350a5292f1461038f57806350c5f467146103ba57806353c3af38146103e3576101f9565b80633a5673a4116101cc5780633a5673a4146102a65780633a98ef39146102d15780633cb5d100146102fc5780634a79d50c14610339576101f9565b806305e91fbc146101fe5780631e2c74f61461022957806336ebffca1461025257806337fb13b01461027d575b600080fd5b34801561020a57600080fd5b50610213610773565b6040516102209190612530565b60405180910390f35b34801561023557600080fd5b50610250600480360381019061024b91906120ec565b610801565b005b34801561025e57600080fd5b506102676108db565b6040516102749190612515565b60405180910390f35b34801561028957600080fd5b506102a4600480360381019061029f919061213e565b6108e1565b005b3480156102b257600080fd5b506102bb6109ca565b6040516102c891906124a8565b60405180910390f35b3480156102dd57600080fd5b506102e66109f0565b6040516102f39190612649565b60405180910390f35b34801561030857600080fd5b50610323600480360381019061031e919061217f565b6109f6565b60405161033091906124a8565b60405180910390f35b34801561034557600080fd5b5061034e610a35565b60405161035b9190612530565b60405180910390f35b34801561037057600080fd5b50610379610ac3565b6040516103869190612649565b60405180910390f35b34801561039b57600080fd5b506103a4610ad0565b6040516103b19190612649565b60405180910390f35b3480156103c657600080fd5b506103e160048036038101906103dc919061213e565b610ad6565b005b3480156103ef57600080fd5b506103f8610c49565b6040516104059190612649565b60405180910390f35b34801561041a57600080fd5b50610423610c4f565b60405161043091906124a8565b60405180910390f35b34801561044557600080fd5b5061044e610c75565b60405161045b9190612530565b60405180910390f35b34801561047057600080fd5b5061048b6004803603810190610486919061213e565b610d03565b005b6104a760048036038101906104a2919061217f565b610dec565b005b3480156104b557600080fd5b506104be610e3c565b6040516104cb9190612649565b60405180910390f35b3480156104e057600080fd5b506104fb60048036038101906104f6919061213e565b610e42565b005b34801561050957600080fd5b50610512610fcd565b005b34801561052057600080fd5b50610529611132565b60405161053691906124a8565b60405180910390f35b34801561054b57600080fd5b506105666004803603810190610561919061213e565b611158565b005b6105706112cb565b005b34801561057e57600080fd5b50610587611431565b6040516105949190612649565b60405180910390f35b3480156105a957600080fd5b506105b2611437565b6040516105bf9190612530565b60405180910390f35b3480156105d457600080fd5b506105dd611470565b6040516105ea9190612530565b60405180910390f35b3480156105ff57600080fd5b506106086114fe565b6040516106159190612649565b60405180910390f35b34801561062a57600080fd5b50610645600480360381019061064091906120c3565b611504565b005b34801561065357600080fd5b5061065c611639565b6040516106699190612649565b60405180910390f35b34801561067e57600080fd5b5061068761163f565b6040516106949190612530565b60405180910390f35b3480156106a957600080fd5b506106c460048036038101906106bf91906121d1565b6116cd565b005b3480156106d257600080fd5b506106ed60048036038101906106e8919061217f565b611920565b6040516106fa9190612649565b60405180910390f35b34801561070f57600080fd5b50610718611944565b6040516107259190612649565b60405180910390f35b6107486004803603810190610743919061217f565b61194a565b005b34801561075657600080fd5b50610771600480360381019061076c91906120c3565b6119a0565b005b60068054610780906128ae565b80601f01602080910402602001604051908101604052809291908181526020018280546107ac906128ae565b80156107f95780601f106107ce576101008083540402835291602001916107f9565b820191906000526020600020905b8154815290600101906020018083116107dc57829003601f168201915b505050505081565b600160009054906101000a900473ffffffffffffffffffffffffffffffffffffffff1673ffffffffffffffffffffffffffffffffffffffff163373ffffffffffffffffffffffffffffffffffffffff1614610891576040517f08c379a000000000000000000000000000000000000000000000000000000000815260040161088890612589565b60405180910390fd5b80156108a05761089f610fcd565b5b600160009054906101000a900473ffffffffffffffffffffffffffffffffffffffff1673ffffffffffffffffffffffffffffffffffffffff16ff5b60075481565b600160009054906101000a900473ffffffffffffffffffffffffffffffffffffffff1673ffffffffffffffffffffffffffffffffffffffff163373ffffffffffffffffffffffffffffffffffffffff1614610971576040517f08c379a000000000000000000000000000000000000000000000000000000000815260040161096890612589565b60405180910390fd5b6000819050816003908051906020019061098c929190611d4c565b507f22acc4a8a24a882ec34023ae560342d9168fcf2891e33fe6cce65205f14b6e1d81836040516109be929190612552565b60405180910390a15050565b600260009054906101000a900473ffffffffffffffffffffffffffffffffffffffff1681565b600d5481565b600b8181548110610a0657600080fd5b906000526020600020016000915054906101000a900473ffffffffffffffffffffffffffffffffffffffff1681565b60038054610a42906128ae565b80601f0160208091040260200160405190810160405280929190818152602001828054610a6e906128ae565b8015610abb5780601f10610a9057610100808354040283529160200191610abb565b820191906000526020600020905b815481529060010190602001808311610a9e57829003601f168201915b505050505081565b6000600b80549050905090565b60125481565b600160009054906101000a900473ffffffffffffffffffffffffffffffffffffffff1673ffffffffffffffffffffffffffffffffffffffff163373ffffffffffffffffffffffffffffffffffffffff1614610b66576040517f08c379a0000000000000000000000000000000000000000000000000000000008152600401610b5d90612589565b60405180910390fd5b600060098054610b75906128ae565b80601f0160208091040260200160405190810160405280929190818152602001828054610ba1906128ae565b8015610bee5780601f10610bc357610100808354040283529160200191610bee565b820191906000526020600020905b815481529060010190602001808311610bd157829003601f168201915b505050505090508160099080519060200190610c0b929190611d4c565b507fb02c8b10c4223f4e1db03c9ed3788d67b02b2a0017cb46d8f7e267da8ec3635d8183604051610c3d929190612552565b60405180910390a15050565b60135481565b600560009054906101000a900473ffffffffffffffffffffffffffffffffffffffff1681565b60048054610c82906128ae565b80601f0160208091040260200160405190810160405280929190818152602001828054610cae906128ae565b8015610cfb5780601f10610cd057610100808354040283529160200191610cfb565b820191906000526020600020905b815481529060010190602001808311610cde57829003601f168201915b505050505081565b600160009054906101000a900473ffffffffffffffffffffffffffffffffffffffff1673ffffffffffffffffffffffffffffffffffffffff163373ffffffffffffffffffffffffffffffffffffffff1614610d93576040517f08c379a0000000000000000000000000000000000000000000000000000000008152600401610d8a90612589565b60405180910390fd5b60008190508160049080519060200190610dae929190611d4c565b507f1fdaa66cdf50e1e42b0580f739eb16e2e93204915beee198eabf70ab5ac138798183604051610de0929190612552565b60405180910390a15050565b600a54811015610e31576040517f08c379a0000000000000000000000000000000000000000000000000000000008152600401610e2890612629565b60405180910390fd5b610e396112cb565b50565b600f5481565b600160009054906101000a900473ffffffffffffffffffffffffffffffffffffffff1673ffffffffffffffffffffffffffffffffffffffff163373ffffffffffffffffffffffffffffffffffffffff1614610ed2576040517f08c379a0000000000000000000000000000000000000000000000000000000008152600401610ec990612589565b60405180910390fd5b600060088054610ee1906128ae565b80601f0160208091040260200160405190810160405280929190818152602001828054610f0d906128ae565b8015610f5a5780601f10610f2f57610100808354040283529160200191610f5a565b820191906000526020600020905b815481529060010190602001808311610f3d57829003601f168201915b505050505090508160089080519060200190610f77929190611d4c565b5060136000815480929190610f8b906128e0565b91905055507f371845017d9ef73a8a9a99f3ff29b8d9a5967ff6ac9e50905722a8e65dfc14458183604051610fc1929190612552565b60405180910390a15050565b600160009054906101000a900473ffffffffffffffffffffffffffffffffffffffff1673ffffffffffffffffffffffffffffffffffffffff163373ffffffffffffffffffffffffffffffffffffffff161461105d576040517f08c379a000000000000000000000000000000000000000000000000000000000815260040161105490612589565b60405180910390fd5b61113060008054906101000a900473ffffffffffffffffffffffffffffffffffffffff1673ffffffffffffffffffffffffffffffffffffffff166370a08231600160009054906101000a900473ffffffffffffffffffffffffffffffffffffffff166040518263ffffffff1660e01b81526004016110db91906124a8565b60206040518083038186803b1580156110f357600080fd5b505afa158015611107573d6000803e3d6000fd5b505050506040513d601f19601f8201168201806040525081019061112b91906121a8565b611ad5565b565b600160009054906101000a900473ffffffffffffffffffffffffffffffffffffffff1681565b600160009054906101000a900473ffffffffffffffffffffffffffffffffffffffff1673ffffffffffffffffffffffffffffffffffffffff163373ffffffffffffffffffffffffffffffffffffffff16146111e8576040517f08c379a00000000000000000000000000000000000000000000000000000000081526004016111df90612589565b60405180910390fd5b6000600680546111f7906128ae565b80601f0160208091040260200160405190810160405280929190818152602001828054611223906128ae565b80156112705780601f1061124557610100808354040283529160200191611270565b820191906000526020600020905b81548152906001019060200180831161125357829003601f168201915b50505050509050816006908051906020019061128d929190611d4c565b507f660b07d69b189ddf18e0bb333d534e5ce6838e161154489b36d3d5bd329e540781836040516112bf929190612552565b60405180910390a15050565b600a5460008054906101000a900473ffffffffffffffffffffffffffffffffffffffff1673ffffffffffffffffffffffffffffffffffffffff166370a08231336040518263ffffffff1660e01b815260040161132791906124a8565b60206040518083038186803b15801561133f57600080fd5b505afa158015611353573d6000803e3d6000fd5b505050506040513d601f19601f8201168201806040525081019061137791906121a8565b10156113b8576040517f08c379a00000000000000000000000000000000000000000000000000000000081526004016113af906125c9565b60405180910390fd5b6113c3600a54611ad5565b600a54600f60008282546113d79190612739565b92505081905550600e60008154809291906113f1906128e0565b91905055507f1a89c1c30743c234698485f5369000475c99a479a87f18ff17e5b581e6fdecdd600e546040516114279190612649565b60405180910390a1565b600e5481565b6040518060400160405280600481526020017f76302e370000000000000000000000000000000000000000000000000000000081525081565b6009805461147d906128ae565b80601f01602080910402602001604051908101604052809291908181526020018280546114a9906128ae565b80156114f65780601f106114cb576101008083540402835291602001916114f6565b820191906000526020600020905b8154815290600101906020018083116114d957829003601f168201915b505050505081565b600a5481565b600160009054906101000a900473ffffffffffffffffffffffffffffffffffffffff1673ffffffffffffffffffffffffffffffffffffffff163373ffffffffffffffffffffffffffffffffffffffff1614611594576040517f08c379a000000000000000000000000000000000000000000000000000000000815260040161158b90612589565b60405180910390fd5b6000600560009054906101000a900473ffffffffffffffffffffffffffffffffffffffff16905081600560006101000a81548173ffffffffffffffffffffffffffffffffffffffff021916908373ffffffffffffffffffffffffffffffffffffffff1602179055507f77a1bc180e78798ba8584a9b8f49c501bfa3c51c781e23a07e84b4e585623665818360405161162d9291906124c3565b60405180910390a15050565b60115481565b6008805461164c906128ae565b80601f0160208091040260200160405190810160405280929190818152602001828054611678906128ae565b80156116c55780601f1061169a576101008083540402835291602001916116c5565b820191906000526020600020905b8154815290600101906020018083116116a857829003601f168201915b505050505081565b600160009054906101000a900473ffffffffffffffffffffffffffffffffffffffff1673ffffffffffffffffffffffffffffffffffffffff163373ffffffffffffffffffffffffffffffffffffffff161461175d576040517f08c379a000000000000000000000000000000000000000000000000000000000815260040161175490612589565b60405180910390fd5b80518251146117a1576040517f08c379a0000000000000000000000000000000000000000000000000000000008152600401611798906125e9565b60405180910390fd5b82600a8190555081600b90805190602001906117be929190611dd2565b5080600c90805190602001906117d5929190611e5c565b506000600d8190555060005b600b8054905081101561185e57600c8181548110611828577f4e487b7100000000000000000000000000000000000000000000000000000000600052603260045260246000fd5b9060005260206000200154600d60008282546118449190612739565b925050819055508080611856906128e0565b9150506117e1565b506000600d5414801561187657506000600b80549050115b156118b6576040517f08c379a00000000000000000000000000000000000000000000000000000000081526004016118ad906125a9565b60405180910390fd5b6118c4600b80549050611b8c565b601481905550601260008154809291906118dd906128e0565b91905055507f8b39b01c7d0d1bd288204f8e12eec2e0ad2b3631ab809dcfe99161c9aefb864d6012546040516119139190612649565b60405180910390a1505050565b600c818154811061193057600080fd5b906000526020600020016000915090505481565b60105481565b61195381611ad5565b60106000815480929190611966906128e0565b9190505550806011600082825461197d9190612739565b9250508190555080600f60008282546119969190612739565b9250508190555050565b600160009054906101000a900473ffffffffffffffffffffffffffffffffffffffff1673ffffffffffffffffffffffffffffffffffffffff163373ffffffffffffffffffffffffffffffffffffffff1614611a30576040517f08c379a0000000000000000000000000000000000000000000000000000000008152600401611a2790612589565b60405180910390fd5b6000600160009054906101000a900473ffffffffffffffffffffffffffffffffffffffff16905081600160006101000a81548173ffffffffffffffffffffffffffffffffffffffff021916908373ffffffffffffffffffffffffffffffffffffffff1602179055507f765025aa0dca9e138e0c49392f08f599a01fe1f8547446eb50c01f10c40693b78183604051611ac99291906124c3565b60405180910390a15050565b601560009054906101000a900460ff1615611b25576040517f08c379a0000000000000000000000000000000000000000000000000000000008152600401611b1c90612609565b60405180910390fd5b6001601560006101000a81548160ff02191690831515021790555060005b600b80549050811015611b6d57611b5a8282611bc4565b8080611b65906128e0565b915050611b43565b506000601560006101000a81548160ff02191690831515021790555050565b600080600080611b9c9190612739565b611ba69190612739565b82611bb191906127c0565b6000611bbd9190612739565b9050919050565b6000600d5483600c8481548110611c04577f4e487b7100000000000000000000000000000000000000000000000000000000600052603260045260246000fd5b9060005260206000200154611c1991906127c0565b611c23919061278f565b90506000600b8381548110611c61577f4e487b7100000000000000000000000000000000000000000000000000000000600052603260045260246000fd5b9060005260206000200160009054906101000a900473ffffffffffffffffffffffffffffffffffffffff1690506000821115611d465760008054906101000a900473ffffffffffffffffffffffffffffffffffffffff1673ffffffffffffffffffffffffffffffffffffffff1663a9059cbb82846040518363ffffffff1660e01b8152600401611cf29291906124ec565b602060405180830381600087803b158015611d0c57600080fd5b505af1158015611d20573d6000803e3d6000fd5b505050506040513d601f19601f82011682018060405250810190611d449190612115565b505b50505050565b828054611d58906128ae565b90600052602060002090601f016020900481019282611d7a5760008555611dc1565b82601f10611d9357805160ff1916838001178555611dc1565b82800160010185558215611dc1579182015b82811115611dc0578251825591602001919060010190611da5565b5b509050611dce9190611ea9565b5090565b828054828255906000526020600020908101928215611e4b579160200282015b82811115611e4a5782518260006101000a81548173ffffffffffffffffffffffffffffffffffffffff021916908373ffffffffffffffffffffffffffffffffffffffff16021790555091602001919060010190611df2565b5b509050611e589190611ea9565b5090565b828054828255906000526020600020908101928215611e98579160200282015b82811115611e97578251825591602001919060010190611e7c565b5b509050611ea59190611ea9565b5090565b5b80821115611ec2576000816000905550600101611eaa565b5090565b6000611ed9611ed484612695565b612664565b90508083825260208201905082856020860282011115611ef857600080fd5b60005b85811015611f285781611f0e8882611fdc565b845260208401935060208301925050600181019050611efb565b5050509392505050565b6000611f45611f40846126c1565b612664565b90508083825260208201905082856020860282011115611f6457600080fd5b60005b85811015611f945781611f7a8882612099565b845260208401935060208301925050600181019050611f67565b5050509392505050565b6000611fb1611fac846126ed565b612664565b905082815260208101848484011115611fc957600080fd5b611fd484828561286c565b509392505050565b600081359050611feb816129f6565b92915050565b600082601f83011261200257600080fd5b8135612012848260208601611ec6565b91505092915050565b600082601f83011261202c57600080fd5b813561203c848260208601611f32565b91505092915050565b60008135905061205481612a0d565b92915050565b60008151905061206981612a0d565b92915050565b600082601f83011261208057600080fd5b8135612090848260208601611f9e565b91505092915050565b6000813590506120a881612a24565b92915050565b6000815190506120bd81612a24565b92915050565b6000602082840312156120d557600080fd5b60006120e384828501611fdc565b91505092915050565b6000602082840312156120fe57600080fd5b600061210c84828501612045565b91505092915050565b60006020828403121561212757600080fd5b60006121358482850161205a565b91505092915050565b60006020828403121561215057600080fd5b600082013567ffffffffffffffff81111561216a57600080fd5b6121768482850161206f565b91505092915050565b60006020828403121561219157600080fd5b600061219f84828501612099565b91505092915050565b6000602082840312156121ba57600080fd5b60006121c8848285016120ae565b91505092915050565b6000806000606084860312156121e657600080fd5b60006121f486828701612099565b935050602084013567ffffffffffffffff81111561221157600080fd5b61221d86828701611ff1565b925050604084013567ffffffffffffffff81111561223a57600080fd5b6122468682870161201b565b9150509250925092565b6122598161281a565b82525050565b61226881612838565b82525050565b60006122798261271d565b6122838185612728565b935061229381856020860161287b565b61229c816129e5565b840191505092915050565b60006122b4601383612728565b91507f43616c6c6572206973206e6f74206f776e6572000000000000000000000000006000830152602082019050919050565b60006122f4602083612728565b91507f546f74616c20736861726573206d757374206265206d6f7265207468616e20306000830152602082019050919050565b6000612334601d83612728565b91507f496e73756666696369656e742066756e647320696e206163636f756e740000006000830152602082019050919050565b6000612374604183612728565b91507f5468652023206f6620636f6e7472696275746f727320646f6573206e6f74206d60008301527f61746368207468652023206f6620636f6e7472696275746f722073686172657360208301527f2e000000000000000000000000000000000000000000000000000000000000006040830152606082019050919050565b6000612400601283612728565b91507f52652d656e747279206973206c6f636b656400000000000000000000000000006000830152602082019050919050565b6000612440602383612728565b91507f496e73756666696369656e742066756e64732073656e7420666f7220706c617960008301527f696e6700000000000000000000000000000000000000000000000000000000006020830152604082019050919050565b6124a281612862565b82525050565b60006020820190506124bd6000830184612250565b92915050565b60006040820190506124d86000830185612250565b6124e56020830184612250565b9392505050565b60006040820190506125016000830185612250565b61250e6020830184612499565b9392505050565b600060208201905061252a600083018461225f565b92915050565b6000602082019050818103600083015261254a818461226e565b905092915050565b6000604082019050818103600083015261256c818561226e565b90508181036020830152612580818461226e565b90509392505050565b600060208201905081810360008301526125a2816122a7565b9050919050565b600060208201905081810360008301526125c2816122e7565b9050919050565b600060208201905081810360008301526125e281612327565b9050919050565b6000602082019050818103600083015261260281612367565b9050919050565b60006020820190508181036000830152612622816123f3565b9050919050565b6000602082019050818103600083015261264281612433565b9050919050565b600060208201905061265e6000830184612499565b92915050565b6000604051905081810181811067ffffffffffffffff8211171561268b5761268a6129b6565b5b8060405250919050565b600067ffffffffffffffff8211156126b0576126af6129b6565b5b602082029050602081019050919050565b600067ffffffffffffffff8211156126dc576126db6129b6565b5b602082029050602081019050919050565b600067ffffffffffffffff821115612708576127076129b6565b5b601f19601f8301169050602081019050919050565b600081519050919050565b600082825260208201905092915050565b600061274482612862565b915061274f83612862565b9250827fffffffffffffffffffffffffffffffffffffffffffffffffffffffffffffffff0382111561278457612783612929565b5b828201905092915050565b600061279a82612862565b91506127a583612862565b9250826127b5576127b4612958565b5b828204905092915050565b60006127cb82612862565b91506127d683612862565b9250817fffffffffffffffffffffffffffffffffffffffffffffffffffffffffffffffff048311821515161561280f5761280e612929565b5b828202905092915050565b600061282582612842565b9050919050565b60008115159050919050565b6000819050919050565b600073ffffffffffffffffffffffffffffffffffffffff82169050919050565b6000819050919050565b82818337600083830152505050565b60005b8381101561289957808201518184015260208101905061287e565b838111156128a8576000848401525b50505050565b600060028204905060018216806128c657607f821691505b602082108114156128da576128d9612987565b5b50919050565b60006128eb82612862565b91507fffffffffffffffffffffffffffffffffffffffffffffffffffffffffffffffff82141561291e5761291d612929565b5b600182019050919050565b7f4e487b7100000000000000000000000000000000000000000000000000000000600052601160045260246000fd5b7f4e487b7100000000000000000000000000000000000000000000000000000000600052601260045260246000fd5b7f4e487b7100000000000000000000000000000000000000000000000000000000600052602260045260246000fd5b7f4e487b7100000000000000000000000000000000000000000000000000000000600052604160045260246000fd5b6000601f19601f8301169050919050565b6129ff8161281a565b8114612a0a57600080fd5b50565b612a168161282c565b8114612a2157600080fd5b50565b612a2d81612862565b8114612a3857600080fd5b5056fea26469706673582212204d77f1de6ad1e59f193588d79c11ec896b6f5b4437460e2cd4ad4e8c3d3b2ce064736f6c63430008000033",
  "immutableReferences": {},
  "source": "// SPDX-License-Identifier: MIT\npragma solidity ^0.8.0;\nimport \"./MUSIC_Schain.sol\";\n\ncontract PayPerPlay {\n    string public constant contractVersion = \"v0.7\"; //rw what version does this now need to be?\n\n    Music private musicToken;\n\n    //rw set all gas costs to zero for Skale.  I am assuming this is ok\n    uint constant gasRequiredForFallback = 0; // 41000;\n    uint constant gasRequiredForLogging = 0; // 2000;\n    uint constant gasRequiredForSend = 0; // 3000;\n    uint constant gasPerRecipient = gasRequiredForFallback + gasRequiredForSend + gasRequiredForLogging;\n    uint constant distributeOverhead = 0; //100000;\n\n    address public owner;\n    address public createdBy;\n    string public title;\n    string public artistName;\n    address public artistProfileAddress;\n    string public resourceUrl; // e.g. ipfs://<hash>\n    bytes32 public contentType; \n    string public metadataUrl;\n    string public imageUrl;\n\n    // license information\n    uint public musicPerPlay;\n\n    // proportional payments (dependent on musicPerPlay or tip size)\n    address[] public contributors;\n    uint[] public contributorShares;\n    uint public totalShares;\n\n    // book keeping\n    uint public playCount;\n    uint public totalEarned;\n    uint public tipCount;\n    uint public totalTipped;\n    uint public licenseVersion;\n    uint public metadataVersion;\n    uint distributionGasEstimate;\n\n    // events\n    event playEvent(uint plays);\n    event tipEvent(uint plays, uint tipCount);\n    event licenseUpdateEvent(uint version);\n    event transferEvent(address oldOwner, address newOwner);\n    event resourceUpdateEvent(string oldResource, string newResource);\n    event titleUpdateEvent(string oldTitle, string newTitle);\n    event artistNameUpdateEvent(string oldArtistName, string newArtistName);\n    event imageUpdateEvent(string oldImage, string newImage);\n    event metadataUpdateEvent(string oldMetadata, string newMetadata);\n    event artistProfileAddressUpdateEvent(address oldArtistAddress, address newArtistAddress);\n\n    // event paymentDistributionEvent(uint amount);\n    // event gasDistributionEvent(uint gas);\n\n    // \"0xca35b7d915458ef540ade6068dfe2f44e8fa733c\", \"Title\", \"Arist\", \"0xca35b7d915458ef540ade6068dfe2f44e8fa733c\", 1000000, \"ipfs://resourceQcjacL3jCvY53MrU6hDBhyW4VjzQqSEoUcEPez\", \"audio/mp3\", \"ipfs://imagefbFQcjacL3jCvY53MrU6hDBhyW4VjzQqSEoUcEPez\", \"ipfs://metadataQcjacL3jCvY53MrU6hDBhyW4VjzQqSEoUcEPez\", [\"0x11111\", \"0x22222\", \"0x33333\"], [1, 1, 1]\n    // \"0xca35b7d915458ef540ade6068dfe2f44e8fa733c\", \"Title\", \"Arist\", \"0xca35b7d915458ef540ade6068dfe2f44e8fa733c\", 1000000, \"ipfs://resourceQcjacL3jCvY53MrU6hDBhyW4VjzQqSEoUcEPez\", \"audio/mp3\", \"ipfs://imagefbFQcjacL3jCvY53MrU6hDBhyW4VjzQqSEoUcEPez\", \"ipfs://metadataQcjacL3jCvY53MrU6hDBhyW4VjzQqSEoUcEPez\", [\"0xef55bfac4228981e850936aaf042951f7b146e41\", \"0x11111\", \"0x22222\", \"0x33333\"], [1, 1, 1, 1]\n    constructor (\n            address _owner,\n            string memory _title,\n            string memory _artistName,\n            address _artistProfileAddress,\n            uint _musicPerPlay,\n            string memory _resourceUrl,\n            bytes32 _contentType, \n            string memory _imageUrl,\n            string memory _metadataUrl,\n            address[] memory _contributors,\n            uint[] memory _contributorShares) {\n        title = _title;\n        artistName = _artistName;\n        contentType = _contentType;\n        artistProfileAddress = _artistProfileAddress;\n\n        createdBy = msg.sender;\n        resourceUrl = _resourceUrl;\n        metadataUrl = _metadataUrl;\n        imageUrl = _imageUrl;\n\n        // allow creator to call this function once during initialization\n        owner = msg.sender;\n        updateLicense(_musicPerPlay,\n            _contributors, _contributorShares);\n\n        // now set the real owner\n        owner = _owner;\n    }\n\n    modifier adminOnly {\n        require(msg.sender == owner, \"Caller is not owner\");\n        _;\n    }\n\n    function tip(uint _tipAmount) public payable {\n        //rw This will now be $MUSIC in _tipAmount not msg.value\n        distributePayment(_tipAmount);\n\n        tipCount++;\n        totalTipped += _tipAmount;\n        totalEarned += _tipAmount;\n    }\n\n    function getContributorsLength() public view returns(uint) {\n        return contributors.length;\n    }\n\n    function play(uint _pppAmount) public payable {\n        //rw This will now be $MUSIC in _pppAmount not msg.value.  \n        //rw This function could work without any variables passed as it was previously designed but then the end user has no control/protection from being overcharged by a high ppp fee.  \n        require(_pppAmount >= musicPerPlay, \"Insufficient funds sent for playing\");\n        play();\n    }\n    \n    function play() public payable {\n        //rw This will now be $MUSIC not ETH  \n        //rw requiring _pppAmount changes the function signature and potentially breaks any connecting apps so this one is retained but unsafe for users playing malicious tracks as they have no control over how much $MUSIC they are sending now\n        require(musicToken.balanceOf(msg.sender) >= musicPerPlay, \"Insufficient funds in account\");\n\n        //rw only use the required musicPerPlay amount and not what was sent in _pppAmount in case it was more than musicPerPlay\n        distributePayment(musicPerPlay);\n        totalEarned += musicPerPlay;\n        playCount++;\n\n        emit playEvent(playCount);\n    }\n\n    /*** Admin functions ***/\n\n    function transferOwnership(address newOwner) public adminOnly {\n        address oldOwner = owner;\n        owner = newOwner;\n        emit transferEvent(oldOwner, newOwner);\n    }\n\n    function updateTitle(string memory newTitle) public adminOnly {\n        string memory oldTitle = newTitle;\n        title = newTitle;\n        emit titleUpdateEvent(oldTitle, newTitle);\n    }\n\n    function updateArtistName(string memory newArtistName) public adminOnly {\n        string memory oldArtistName = newArtistName;\n        artistName = newArtistName;\n        emit artistNameUpdateEvent(oldArtistName, newArtistName);\n    }\n\n    function updateResourceUrl(string memory newResourceUrl) public adminOnly {\n        string memory oldResourceUrl = resourceUrl;\n        resourceUrl = newResourceUrl;\n        emit resourceUpdateEvent(oldResourceUrl, newResourceUrl);\n    }\n\n    function updateImageUrl(string memory newImageUrl) public adminOnly {\n        string memory oldImageUrl = imageUrl;\n        imageUrl = newImageUrl;\n        emit imageUpdateEvent(oldImageUrl, newImageUrl);\n    }\n\n    function updateArtistAddress(address newArtistAddress) public adminOnly {\n        address oldArtistAddress = artistProfileAddress;\n        artistProfileAddress = newArtistAddress;\n        emit artistProfileAddressUpdateEvent(oldArtistAddress, newArtistAddress);\n    }\n\n    function updateMetadataUrl(string memory newMetadataUrl) public adminOnly {\n        string memory oldMetadataUrl = metadataUrl;\n        metadataUrl = newMetadataUrl;\n        metadataVersion++;\n        emit metadataUpdateEvent(oldMetadataUrl, newMetadataUrl);\n    }\n\n    /*\n     * Updates share allocations.  All old allocations are over written\n     */\n    function updateLicense(uint _musicPerPlay,\n        address[] memory _contributors, uint[] memory _contributorShares) public adminOnly {\n\n        require (_contributors.length == _contributorShares.length, 'The # of contributors does not match the # of contributor shares.');\n        musicPerPlay = _musicPerPlay;\n        contributors = _contributors;\n        contributorShares = _contributorShares;\n        totalShares = 0;\n\n        for (uint c=0; c < contributors.length; c++) {\n            totalShares += contributorShares[c];\n        }\n\n        // sanity checks\n\n        // watch out for division by 0 if totalShares == 0\n        require(!(totalShares == 0 && contributors.length > 0), \"Total shares must be more than 0\");\n\n        distributionGasEstimate = estimateGasRequired(contributors.length);\n        licenseVersion++;\n        emit licenseUpdateEvent(licenseVersion);\n    }\n\n    function distributeBalance() public adminOnly {\n        distributePayment(musicToken.balanceOf(owner)); //rw updated to use $MUSIC instead of ETH address(this).balance\n    }\n\n    function kill(bool _distributeBalanceFirst) public adminOnly {\n        if (_distributeBalanceFirst) {\n            distributeBalance(); // is there any risk here?\n        }\n        selfdestruct(payable(owner));\n    }\n\n    /*** internal ***/\n    bool private distributionReentryLock;\n    modifier withDistributionLock {\n        require (!distributionReentryLock, \"Re-entry is locked\") ;\n        distributionReentryLock = true;\n        _;\n        distributionReentryLock = false;\n    }\n\n    function estimateGasRequired(uint _recipients) internal pure returns(uint) {\n        return distributeOverhead + _recipients*gasPerRecipient;\n    }\n\n    function distributePayment(uint _total) withDistributionLock internal {\n        for (uint c=0; c < contributors.length; c++) {\n            distributePaymentTo(_total, c);\n        }\n    }\n\n    function distributePaymentTo(uint _total, uint cIdx) internal {\n        uint amount = (contributorShares[cIdx] * _total) / totalShares;\n        address contributorAddress = contributors[cIdx];\n\n        if (amount > 0) {\n            musicToken.transfer(contributorAddress, amount);\n        }\n    }\n}\n",
  "sourcePath": "/home/alpha/musiccoin/hackathon/contracts/PayPerPlay.sol",
  "compiler": {
    "name": "solc",
    "version": "0.8.0+commit.c7dfd78e.Emscripten.clang"
  },
  "schemaVersion": "3.3.4",
  "updatedAt": "2021-05-06T16:08:28.779Z",
  "devdoc": {
    "kind": "dev",
    "methods": {},
    "version": 1
  },
  "userdoc": {
    "kind": "user",
    "methods": {},
    "version": 1
  }
}